:100000000C9463000C948B000C948B000C948B006C
:100010000C948B000C948B000C948B000C948B0034
:100020000C948B000C948B000C948B000C948B0024
:100030000C948B000C948B000C948B000C948B0014
:100040000C9450010C948B000C949F030C94DB03D4
:100050000C948B000C948B000C948B000C948B00F4
:100060000C948B000C948B00000000070002010030
:100070000003040600000000000000000102040864
:100080001020408001020408102001020408102002
:10009000040404040404040402020202020203032E
:1000A00003030303000000002300260029000000D2
:1000B0000000250028002B0000000000240027007D
:1000C0002A002501960411241FBECFEFD8E0DEBF21
:1000D000CDBF14E0A0E0B1E0E8E3F1E202C005909A
:1000E0000D92A036B107D9F716E0A0E6B4E001C042
:1000F0001D92A930B107E1F710E0C6ECD0E004C0D2
:100100002297FE010E949610C23CD107C9F70E94B7
:10011000E6040C94F90D0C940000BC018AE295E011
:100120000E943609882331F08AE295E00E94060990
:1001300081E0089580E00895FF920F931F93CF937D
:10014000DF93C0E0D0E080910A01882369F06DE27E
:1001500071E08EE595E00E942D054AE050E0BE0179
:100160008EE595E00E941B0603E010E0CE010E94A0
:100170008D00F82E81111EC080910A01882369F03C
:100180006EE471E08EE595E00E942D054AE050E0B6
:10019000B8018EE595E00E941B0668EB7BE080E0ED
:1001A00090E00E94FA066053784F8F4F9F4F0E9455
:1001B000D60102C000E010E001501109101611062E
:1001C000ACF2F1100BC068E671E08EE595E0DF91CE
:1001D000CF911F910F91FF900C944C052196C33045
:1001E000D10509F0B0CFDF91CF911F910F91FF9012
:1001F000089540E855E260E070E08EE595E00E94E9
:1002000016042CE930E040E65AEE60E070E080E64B
:1002100094E00E947E0BBC0180E694E00E94560CA4
:1002200080910A01882321F08AE295E00E94260746
:1002300080E00E942F010C94F2068AE295E00E9471
:10024000060980E694E00C94C20B43E065E08AE284
:1002500095E00E94A90780E694E00C94D60A8E30BF
:1002600008F08E50877020910B0140E4249F90018C
:100270001124822B80937C0080917A00806480938B
:100280007A0080917A0086FDFCCF20917800309131
:100290007900932F80E0AC01422B9A01C9010895A7
:1002A0001F920F920FB60F9211242F933F938F93AB
:1002B0009F93AF93BF938091550590915605A09160
:1002C0005705B091580530915D05232F2D5F2D37CF
:1002D00020F40196A11DB11D05C0232F2A570296B7
:1002E000A11DB11D20935D05809355059093560582
:1002F000A0935705B09358058091590590915A05E0
:10030000A0915B05B0915C050196A11DB11D809384
:10031000590590935A05A0935B05B0935C05BF9176
:10032000AF919F918F913F912F910F900FBE0F90A2
:100330001F9018950F931F938FB7F8940091550550
:100340001091560520915705309158058FBFB8017F
:10035000C9011F910F9108950F931F939FB7F894B0
:100360000091590510915A0520915B0530915C056B
:1003700086B5A89B06C08F3F21F00F5F1F4F2F4F00
:100380003F4F9FBF322F212F102F0027080F111D25
:10039000211D311D42E0000F111F221F331F4A95FE
:1003A000D1F7B801C9011F910F910895CF92DF9243
:1003B000EF92FF92CF93DF936B017C010E94AC011F
:1003C000EB010EC00E94AC016C1B7D0B683E7340BC
:1003D00038F081E0C81AD108E108F108C851DC4FB3
:1003E000C114D104E104F10469F7DF91CF91FF90CA
:1003F000EF90DF90CF900895019739F0880F991F03
:10040000880F991F02970197F1F70895789484B5A2
:10041000826084BD84B5816084BD85B5826085BD00
:1004200085B5816085BDEEE6F0E0808181608083E6
:10043000E1E8F0E0108280818260808380818160C9
:100440008083E0E8F0E0808181608083E1EBF0E090
:10045000808184608083E0EBF0E080818160808334
:10046000EAE7F0E08081846080838081826080831D
:100470008081816080838081806880831092C10048
:100480000895833069F028F48130A1F0823011F5AD
:1004900014C08630B1F08730C1F08430D9F404C084
:1004A000809180008F7703C0809180008F7D809342
:1004B0008000089584B58F7702C084B58F7D84BD98
:1004C00008958091B0008F7703C08091B0008F7D38
:1004D0008093B0000895CF93DF9390E0FC01E4583F
:1004E000FF4F4491FC01E057FF4F8491882341F175
:1004F00090E0880F991FFC01E854FF4F259134913B
:10050000D90182559F4FFC0185919491C82FD92F15
:100510009FB7F8948C91611106C0409584238C9309
:100520008881842308C0623041F4242F20958223DF
:100530008C938881842B888302C0842B8C939FBFEB
:10054000DF91CF9108950F931F93CF93DF931F9265
:10055000CDB7DEB7282F30E0F901E859FF4F84917D
:10056000F901E458FF4F1491F901E057FF4F04914E
:100570000023D1F0882321F069830E944102698120
:10058000E02FF0E0EE0FFF1FE255FF4F85919491B1
:10059000DC019FB7F8948C91611103C01095812301
:1005A00001C0812B8C939FBF0F90DF91CF911F9142
:1005B0000F910895CF93DF93282F30E0F901E85988
:1005C000FF4F8491F901E458FF4FD491F901E057AE
:1005D000FF4FC491CC2389F081110E944102EC2F7E
:1005E000F0E0EE0FFF1FEC55FF4F85919491DC0179
:1005F0008C918D2321E030E011F420E030E0C9013E
:10060000DF91CF910895FC0184859585FC01E05C24
:10061000FF4F20813181FC01EE5BFF4F8081918192
:10062000281B390B2F733327C9010895FC018485DA
:100630009585FC01E05CFF4F40815181FC01EE5B40
:10064000FF4F208131814217530741F00190F08123
:10065000E02DE80FF91F208130E002C02FEF3FEFBF
:10066000C9010895FC0184859585FC01E05CFF4F7C
:1006700040815181FC01EE5BFF4F208131814217A7
:10068000530781F0A081B181A80FB91F8C912081FF
:1006900031812F5F3F4F2F73332731832083282FE2
:1006A00030E002C02FEF3FEFC9010895FC018685BD
:1006B0009785FC01E05CFF4FDC01AE5BBF4F4081E2
:1006C00051812D913C91119742175307C1F708951D
:1006D000CF93DF93FC0186859785DC01A05CBF4F3B
:1006E0002D913C9111972F5F3F4F2F733327EC01D2
:1006F000CE5BDF4F4881598124173507D9F30D9020
:10070000BC91A02DA80FB91F6C93A685B785A05CDE
:10071000BF4F11963C932E93A689B7892C9181E007
:1007200090E0058C02C0880F991F0A94E2F7282BED
:100730002C9381E090E0DF91CF91089508951F926E
:100740000F920FB60F9211242F933F934F938F93D5
:100750009F93EF93FF934091C60080910106909183
:10076000020601968F7399272091030630910406A3
:100770008217930759F0E0910106F0910206EF53BA
:10078000FA4F40839093020680930106FF91EF9108
:100790009F918F914F913F912F910F900FBE0F908E
:1007A0001F9018958EE595E00E940303892B11F0A8
:1007B0000C949E0308951F920F920FB60F9211246E
:1007C0002F933F938F939F93EF93FF932091BD05BA
:1007D0003091BE058091BF059091C005281739075B
:1007E00031F48091C1008F7D8093C10014C0E091ED
:1007F000BF05F091C005E358FA4F20818091BF05F5
:100800009091C00501968F7399279093C0058093AE
:10081000BF052093C600FF91EF919F918F913F916B
:100820002F910F900FBE0F901F901895CF92DF92CF
:10083000EF92FF92CF93DF93EC016A017B014115A8
:1008400081EE580761057105F9F0EC89FD8981E0B9
:1008500090E00E8C02C0880F991F0A94E2F7808303
:1008600060E079E08DE390E0A70196010E942F10EF
:1008700021503109410951095695479537952795DA
:10088000211580E1380798F0EC89FD89108260E835
:1008900074E88EE190E0A70196010E942F1021508C
:1008A0003109410951095695479537952795E889AA
:1008B000F9893083EA89FB892083EE89FF894081A9
:1008C00081E090E09C010A8C02C0220F331F0A9441
:1008D000E2F7422B4083EE89FF8940819C010B8C1B
:1008E00002C0220F331F0A94E2F7422B4083EE89A5
:1008F000FF8940819C010C8C02C0220F331F0A9497
:10090000E2F7422B4083EE89FF8920810D8C02C0E3
:10091000880F991F0A94E2F7809582238083DF91E4
:10092000CF91FF90EF90DF90CF90089510926105E6
:100930001092600588EE93E0A0E0B0E0809362053D
:1009400090936305A0936405B09365058EE791E0ED
:1009500090935F0580935E0581EC95E090936B0525
:1009600080936A058DE795E090936D0580936C0503
:1009700085EC90E090936F0580936E0584EC90E099
:10098000909371058093700580EC90E090937305CF
:100990008093720581EC90E09093750580937405C7
:1009A00086EC90E0909377058093760584E08093C1
:1009B000780583E08093790587E080937A0585E068
:1009C00080937B0581E080937C0508950E94060258
:1009D0000E94F900C2EDD3E00E941D012097E1F3CF
:1009E0000E94D203F9CF0C94640CCF92DF92EF9265
:1009F000FF920F931F93CF93DF936C01EB017A016A
:100A0000E60EF71E00E010E00BC06991D601ED91F3
:100A1000FC910190F081E02DC6010995080F191F86
:100A2000CE15DF0591F7C801DF91CF911F910F918E
:100A3000FF90EF90DF90CF900895DB010D900020A4
:100A4000E9F7AD0141505109461B570BDC01ED910F
:100A5000FC910280F381E02D09940C941D05DC01CA
:100A6000ED91FC910190F081E02D09940F931F937B
:100A7000CF93DF93EC016DE00E942F058C016AE0BB
:100A8000CE010E942F059C01200F311FC901DF916B
:100A9000CF911F910F9108950F931F93CF93DF93E1
:100AA000EC010E941D058C01CE010E9436059801C3
:100AB000280F391FC901DF91CF911F910F91089520
:100AC0004F925F926F927F929F92AF92BF92CF921E
:100AD000DF92EF92FF920F931F93CF93DF93CDB7E7
:100AE000DEB7A1970FB6F894DEBF0FBECDBF5C0195
:100AF0006A017B01922E19A281E0821710F08AE030
:100B0000982E8E010F5D1F4F492C512C612C712C9A
:100B1000C701B601A30192010E942F108C2D929E55
:100B200080191124015011098A3014F4805D01C02C
:100B3000895CF801808369017A01C114D104E10460
:100B4000F10431F7B801C5010E941D05A1960FB649
:100B5000F894DEBF0FBECDBFDF91CF911F910F91F3
:100B6000FF90EF90DF90CF90BF90AF909F907F90DD
:100B70006F905F904F9008952115310541F4DC018D
:100B8000ED91FC910190F081E02D642F09940C947B
:100B900060059A01462F50E060E070E00C94BC05BF
:100BA000CF92DF92EF92FF920F931F93CF93DF9339
:100BB000EC016A017B012115310579F4E881F981A5
:100BC0000190F081E02D642FDF91CF911F910F9163
:100BD000FF90EF90DF90CF9009942A30310519F4FF
:100BE00077FD0EC02AE0B701A601CE01DF91CF91BB
:100BF0001F910F91FF90EF90DF90CF900C946005C4
:100C00006DE20E942F058C0144275527BA014C192B
:100C10005D096E097F092AE0CE010E946005080F78
:100C2000191FC801DF91CF911F910F91FF90EF9095
:100C3000DF90CF9008950F931F93CF93DF93EC0134
:100C40009A01AB01662757FD6095762F0E94D0056B
:100C50008C01CE010E9436059801280F391FC90169
:100C6000DF91CF911F910F9108957F928F929F9264
:100C7000AF92BF92CF92DF92EF92FF920F931F93AA
:100C8000CF93DF938C014A015B01F22E20E030E02C
:100C9000A901C501B4010E946A0E87FF0AC06DE276
:100CA000C8010E942F05EC01B7FAB094B7F8B094D0
:100CB00002C0C0E0D0E0E12C60E070E080E09FE3A3
:100CC00007C020E030E040E251E40E946E0EE39461
:100CD000EF10F7CF262F372F482F592FC501B4011A
:100CE0000E94060E762E872E982EA92E0E94DB0ECD
:100CF000B62EC72ED82EE92E0E94070F9B01AC01FD
:100D0000672D782D892D9A2D0E94050EA62E972EDF
:100D1000882E792E2AE04B2D5C2D6D2D7E2DC8015D
:100D20000E946005C80FD91FFF20B9F16AE871E081
:100D3000C8010E941D05C80FD91F2FC020E030E058
:100D400040E251E46A2D792D882D972D0E94B90F2C
:100D5000762EC72ED82EE92E0E94D60E4B01AA243D
:100D600097FCA094BA2C2AE030E0B501A401C80198
:100D70000E94D005C80FD91FC501B4010E94090FF8
:100D80009B01AC01672D7C2D8D2D9E2D0E94050EA3
:100D9000A62E972E882E792EFA94F110CFCFCE0161
:100DA000DF91CF911F910F91FF90EF90DF90CF9047
:100DB000BF90AF909F908F907F9008950F931F9357
:100DC000CF93DF93EC010E9435068C01CE010E9487
:100DD00036059801280F391FC901DF91CF911F9166
:100DE0000F910895009729F0BC0180E090E00C94E9
:100DF000F00D08950F931F93CF93DF9300D000D091
:100E0000CDB7DEB79B01AC01611571058105910578
:100E100079F069833A834B835C830E94EB0D2981CF
:100E20003A814B815C810E9451108B019C0103C06F
:100E300000E010E09801B801C9010F900F900F90E9
:100E40000F90DF91CF911F910F91089521E0FC0148
:100E50002083818192810C94230A4F925F927F922A
:100E60008F929F92AF92BF92CF92DF92EF92FF92BA
:100E70000F931F93CF93DF931F92CDB7DEB77C0103
:100E80006B01742E752F8901490182E0881A91083F
:100E9000C901A42FB52F412C512C0EC02D91E52D49
:100EA000FF27E227EE0FFF1FE750FE4F2081318121
:100EB000542C44244226532601978130910571F722
:100EC000CC0CDD1CD7019796AD90BC909897AC0CDC
:100ED000BD1CC80179830E94640CF5018083918355
:100EE000D7019996ED91FC919A97EC0DFD1D118318
:100EF00000839796ED91FC919897EC0DFD1DA40150
:100F0000672D7981808191810E94FC0DD701979690
:100F1000ED91FC919897EC0DFD1D0190F081E02D75
:100F2000E00FF11F3297542445245424518240820B
:100F30000F90DF91CF911F910F91FF90EF90DF9075
:100F4000CF90BF90AF909F908F907F905F904F9089
:100F50000895EF92FF920F931F93CF93DF9300D0EA
:100F6000CDB7DEB77C01FC01108289E090E04A83B6
:100F700069830E94F3048C014A8169810E94FE0901
:100F8000F7011283018386E090E00E94640CF70170
:100F900087A390A786E090E00E94640CF70181A7E8
:100FA00092A72BE030E042E251E060E070E0C70140
:100FB0000E942D072BE030E047E151E061E070E056
:100FC000C7010E942D072BE030E04CE051E062E0C9
:100FD00070E0C7010F900F90DF91CF911F910F919B
:100FE000FF90EF900C942D07FC014681DC011396D5
:100FF00020E030E0CD01840F911D0EC04D91E32F14
:10100000FF27E427EE0FFF1FE750FE4F408151817D
:10101000322F222724273527A817B90779F781E02F
:10102000232B09F080E008950F931F93CF93DF9354
:101030008B01EA016CE871E08EE595E00E942D05D8
:10104000B8018EE595E00E942D056DE574E08EE512
:1010500095E00E942D05688179817627672776279C
:10106000882777FD8095982F0E94090F20E030E0B7
:1010700040E85CE30E94B90FAB01BC0122E030E024
:101080008EE595E0DF91CF911F910F910C94DE06D4
:101090001F93CF93DF93EC018F818230A9F48A856F
:1010A000823009F058C08B85893121F0893209F0EE
:1010B00052C004C0AE01445F5F4F28C0AE01445F20
:1010C0005F4F6AE971E042C0873009F042C08A850B
:1010D000853009F040C08B858F3239F138F4813288
:1010E00091F08A32E1F08931B1F507C08E3619F1FD
:1010F0008F3639F1843379F50CC0AE01435F5F4F11
:101100006FE971E023C0AE01435F5F4F62E971E0B8
:101110001DC0AE01435F5F4F66EA71E017C0AE01CC
:10112000435F5F4F6DEA71E011C0AE01435F5F4FF7
:1011300067EB71E00BC0AE01435F5F4F6EEB71E098
:1011400005C0AE01435F5F4F6AEC71E0CE010E94C3
:10115000140880E001C081E09881992309F452C00D
:10116000882309F44FC066ED71E08EE595E00E949A
:101170002D0540E150E06C818EE595E00E94C905A7
:1011800066EE71E08EE595E00E942D0540E150E0AD
:101190006D818EE595E00E94C9056EEE71E08EE5E9
:1011A00095E00E942D054AE050E06E818EE595E0C5
:1011B0000E94C90566EF71E08EE595E00E942D055D
:1011C00010E011C0FE01E20FF31F40E150E0678123
:1011D0008EE595E00E94C90567EF71E08EE595E028
:1011E0000E942D051F5F212F30E08E8190E0049733
:1011F000281739073CF38EE595E0DF91CF911F91D9
:101200000C943605DF91CF911F910895CF93DF9312
:10121000EC01BC016D5F7F4F41E050E089819A8114
:101220000E94270A8B818C3DF1F4BE016C5F7F4FD9
:1012300043E050E089819A810E94270A4E8150E064
:1012400044505109BE01695F7F4F89819A810E9494
:10125000270ACE010E94F407882329F0CE01DF91EE
:10126000CF910C944808DF91CF910895FC01660F4F
:10127000771FA1A5B2A5A60FB71F4D915C91A7A19D
:10128000B0A5A60FB71F6D917C91818192810C94BE
:10129000740AAF92BF92CF92DF92EF92FF920F93B8
:1012A0001F93CF93DF93EC018B015A018A810E9437
:1012B000A3020E94AC016501E12CF12C24E0C21ACA
:1012C000D108E108F108C60ED71EE81EF91EC501B7
:1012D000969587950E94FC0106C089810E94DA02DA
:1012E0000817190749F00E94AC016C157D058E05A1
:1012F0009F0598F381E001C080E0DF91CF911F91BD
:101300000F91FF90EF90DF90CF90BF90AF90089536
:10131000DF92EF92FF920F931F93CF93DF93EC0135
:10132000D62E4B815C8161E070E00E9449098823E0
:1013300009F453C088E090E020E8E12C322F3D21F1
:1013400009F0E39426950197C9F708E010E0FF241F
:10135000F3948F2D8D214B815C81882361F060E0B7
:1013600070E0CE010E944909811111C02F2D30E09B
:1013700028513C4F3AC061E070E0CE010E9449091B
:10138000811105C02F2D30E02053384F2EC0FF0CA7
:1013900001501109F1F64B815C81E0FE11C061E062
:1013A00070E0CE010E9449098823D1F04B815C8115
:1013B00060E070E0CE010E944909882359F013C013
:1013C00060E070E0CE010E9449098111EFCF25E075
:1013D00030E00BC026E030E008C021E030E005C07E
:1013E00024E030E002C020E030E0C901DF91CF917D
:1013F0001F910F91FF90EF90DF900895CF93DF93AF
:10140000EC01862F188269834A8320EC30E03C830C
:101410002B8320E630E03E832D8320E831E03887BF
:101420002F8360E00E946B0261E08A810E946B0260
:1014300060E08A810E94A30280E00E942F01DF9178
:10144000CF910C94F20621E0FC0120830895BF9215
:10145000CF92DF92EF92FF920F931F93CF93DF9380
:101460008C016A01EB01C60ED71E31C0F8018181E3
:101470000E94DA02892BD1F7F80181810E94DA02F9
:10148000892BA1F7F801858196810E94FC01E12C4E
:10149000F12CB12CF801838194810E94FC01F801A8
:1014A00081810E94DA020E2C01C0880F0A94EAF7AB
:1014B000B82AFFEFEF1AFF0A88E0E816F10451F7A7
:1014C000F801878190850E94FC01B094B992CC15F7
:1014D000DD0561F6DF91CF911F910F91FF90EF90A5
:1014E000DF90CF90BF900895AF92BF92CF92DF92DE
:1014F000EF92FF920F931F93CF93DF93EC015B0169
:101500008A010E949A016B017C0185E0C80ED11C02
:10151000E11CF11C0FC089810E94DA02892B51F471
:1015200088818823B9F169EF73E08EE595E00E9428
:101530004C0530C00E949A016C157D058E059F05F3
:1015400050F375010A0D1B1D20C0F70161917F0149
:101550006095CE010E9488096C0118161906ACF43A
:101560008881882369F060E274E08EE595E00E944E
:101570002D054AE050E0B6018EE595E00E941B067D
:1015800060E08A810E94A30205C0E016F106E9F638
:1015900081E001C080E0DF91CF911F910F91FF901A
:1015A000EF90DF90CF90BF90AF900895EF92FF92B1
:1015B0001F93CF93DF93EC010E949A01FE0120E07C
:1015C00030E014E1129FA001139F500D11244C0F25
:1015D0005D1FDA01412F1D924A95E9F760837183FF
:1015E000828393832F5F3F4F74962A30310551F7E2
:1015F000C853DF4F19821882DF91CF911F91FF905E
:10160000EF900895FC01E853FF4F208131812A308B
:10161000310568F4FC0120E030E084819581892B5C
:1016200041F02F5F3F4F74962A303105B1F72FEF0D
:101630003FEFC90108954F925F926F927F928F9210
:101640009F92AF92BF92CF92DF92EF920F931F9330
:10165000CF93DF9300D000D0CDB7DEB75C01490156
:10166000380149835A836B837C830E94020B8C016F
:1016700049815A816B817C8197FD29C08114910435
:1016800031F184E1809F2001819F500C11244A0C8C
:101690005B1CF2014187528763877487958284823D
:1016A00077826682E086D686C58681E0818B0E943D
:1016B0009A01F2016083718382839383F501E85379
:1016C000FF4F8081918101969183808302C00FEF4B
:1016D0001FEFC8010F900F900F900F90DF91CF91E7
:1016E0001F910F91EF90DF90CF90BF90AF909F90A0
:1016F0008F907F906F905F904F900895CF92DF9280
:10170000EF920F931F93C12CD12CE12C00E010E03D
:101710000E941B0B1F910F91EF90DF90CF900895C7
:101720000F931F93CF93DF936A30710530F58C01CF
:1017300008531F4FD8012D913C91232BF1F024E148
:10174000269FE001279FD00D1124C80FD91F8C813F
:101750009D81892B91F0EC2FFD2FDF011D922A95A1
:10176000E9F70E949A01688379838A839B83F80151
:1017700080819181019791838083DF91CF911F9127
:101780000F9108952F923F924F925F926F927F92A6
:101790008F929F92AF92BF92CF92DF92EF92FF9281
:1017A0000F931F93CF93DF93382E292E0E949A0117
:1017B000C32DD22DFE012AE030E0A1E0B0E002E02E
:1017C00010E0138A128A44815581452BB1F1408083
:1017D00051806280738081849284A384B4846B017D
:1017E0007C01C418D508E608F708C814D904EA042F
:1017F000FB0418F1840C951CA61CB71C80829182F6
:10180000A282B38241894423C1F0E584F684E114C5
:10181000F10419F4B38BA28B10C0478550894E1583
:101820005F0558F4B38BA28B4F5F5F4F508B478798
:101830004E155F0510F0138B028B21503109749601
:101840002115310509F0BDCF00E010E08A899B89A0
:10185000892B99F08885EC81FD81882321F08E8188
:101860009F81099501C009958A899B89029729F46E
:10187000B801832D922D0E94900B0F5F1F4F64962D
:101880000A30110519F7DF91CF911F910F91FF9049
:10189000EF90DF90CF90BF90AF909F908F907F9010
:1018A0006F905F904F903F902F9008956A30710530
:1018B00050F424E1269FF001279FF00D1124E80F3A
:1018C000F91F81E0818B08950F931F93CF93DF93CE
:1018D0008230910510F482E090E0E0910706F091EB
:1018E000080620E030E0C0E0D0E023C04081518114
:1018F00048175907A8F04817590761F48281938166
:10190000209719F09B838A832EC0909308068093BA
:10191000070629C02115310529F04217530710F099
:10192000A90102C0BE01DF0102811381EF019A010A
:10193000F8013097D9F62115310509F1281B390B2B
:101940002430310590F412968D919C911397611576
:10195000710521F0FB019383828304C090930806F4
:1019600080930706FD01329644C0FD01E20FF31F8C
:1019700081939193225031092D933C933AC0209149
:10198000050630910606232B41F420910201309187
:101990000301309306062093050620910001309143
:1019A00001012115310541F42DB73EB740910401E5
:1019B00050910501241B350BE0910506F0910606B8
:1019C000E217F307A0F42E1B3F0B2817390778F016
:1019D000AC014E5F5F4F2417350748F04E0F5F1F75
:1019E00050930606409305068193919302C0E0E070
:1019F000F0E0CF01DF91CF911F910F910895EF9209
:101A0000FF920F931F93CF93DF93009709F48EC03B
:101A1000DC01129713961C921E921297E090070613
:101A2000F0900806E114F10489F42D913C9111978E
:101A3000280F391F8091050690910606821793079B
:101A400089F5B0930606A093050670C0E70120E073
:101A500030E001C0EA01CA17DB0738F44A815B8134
:101A60009E0141155105B1F722C0AC014250510908
:101A7000FA01D383C28300811181BC01600F711F01
:101A80006C177D0761F468817981600F711F6E5F4B
:101A90007F4F718360836A817B81738362832115A9
:101AA000310529F4B0930806A09307063FC0F90159
:101AB000B383A283E90149915991C40FD51FAC1793
:101AC000BD0771F4DC019E918E91840F951F0296E3
:101AD0009183808312968D919C9113979383828337
:101AE000A0E0B0E002C0D7017C01F70182819381C0
:101AF0000097C9F7C701029620813181820F931F99
:101B000020910506309106062817390779F41097B9
:101B100029F4109208061092070604C013961C922E
:101B20001E921297F0920606E0920506CDB7DEB738
:101B3000E6E00C9479108F929F92AF92BF92CF9271
:101B4000DF92EF92FF92CF93DF93EC01688179816E
:101B50008A819B81611571058105910521F464E2FB
:101B600079ED8BE597E02DE133EF41E050E00E9405
:101B7000511049015A019B01AC01A7EAB1E40E944E
:101B80001C106B017C01ACEEB4EFA50194010E9426
:101B90002A10C60ED71EE81EF91EF7FE06C081E009
:101BA000C81AD108E10880E8F80AC882D982EA8216
:101BB000FB82E894F7F8B601C701DF91CF91FF905F
:101BC000EF90DF90CF90BF90AF909F908F9008954F
:101BD0000E949B0D089586E091E00E949B0D089560
:101BE00060930601709307018093080190930901A7
:101BF0000895F8940C949A10FB01DC0102C0019046
:101C00000D9241505040D8F708955058BB27AA274D
:101C10000ED075C166D130F06BD120F031F49F3F0A
:101C200011F41EF45BC10EF4E095E7FB51C1E92FFE
:101C300077D180F3BA17620773078407950718F006
:101C400071F49EF58FC10EF4E0950B2EBA2FA02DE6
:101C50000B01B90190010C01CA01A0011124FF2759
:101C6000591B99F0593F50F4503E68F11A16F04054
:101C7000A22F232F342F4427585FF3CF4695379553
:101C80002795A795F0405395C9F77EF41F16BA0B18
:101C9000620B730B840BBAF09150A1F0FF0FBB1FC6
:101CA000661F771F881FC2F70EC0BA0F621F731F0F
:101CB000841F48F4879577956795B795F7959E3F6C
:101CC00008F0B3CF9395880F08F09927EE0F9795FA
:101CD00087950895D9D008F481E008950CD00FC1FC
:101CE00007D140F0FED030F021F45F3F19F0F0C092
:101CF000511139C1F3C014D198F39923C9F3552375
:101D0000B1F3951B550BBB27AA27621773078407EE
:101D100038F09F5F5F4F220F331F441FAA1FA9F3A4
:101D200033D00E2E3AF0E0E830D091505040E69596
:101D3000001CCAF729D0FE2F27D0660F771F881FF7
:101D4000BB1F261737074807AB07B0E809F0BB0BE6
:101D5000802DBF01FF2793585F4F2AF09E3F51050A
:101D600068F0B6C000C15F3FECF3983EDCF38695A7
:101D700077956795B795F7959F5FC9F7880F911D80
:101D80009695879597F90895E1E0660F771F881F6C
:101D9000BB1F621773078407BA0720F0621B730B1F
:101DA000840BBA0BEE1F88F7E095089504D0689471
:101DB000B111D9C00895BCD088F09F5790F0B92FC9
:101DC0009927B751A0F0D1F0660F771F881F991F90
:101DD0001AF0BA95C9F712C0B13081F0C3D0B1E0A2
:101DE0000895C0C0672F782F8827B85F39F0B93FB2
:101DF000CCF3869577956795B395D9F73EF4909592
:101E00008095709561957F4F8F4F9F4F0895E8940F
:101E100009C097FB3EF490958095709561957F4F32
:101E20008F4F9F4F9923A9F0F92F96E9BB279395E0
:101E3000F695879577956795B795F111F8CFFAF4F0
:101E4000BB0F11F460FF1BC06F5F7F4F8F4F9F4F21
:101E500016C0882311F096E911C0772321F09EE87F
:101E6000872F762F05C0662371F096E8862F70E0E5
:101E700060E02AF09A95660F771F881FDAF7880FBF
:101E80009695879597F90895990F0008550FAA0B15
:101E9000E0E8FEEF16161706E807F907C0F012167D
:101EA0001306E407F50798F0621B730B840B950B80
:101EB00039F40A2661F0232B242B252B21F40895D5
:101EC0000A2609F4A140A6958FEF811D811D089572
:101ED00097F99F6780E870E060E008959FEF80ECDD
:101EE000089500240A941616170618060906089580
:101EF00000240A9412161306140605060895092EE6
:101F00000394000C11F4882352F0BB0F40F4BF2B54
:101F100011F460FF04C06F5F7F4F8F4F9F4F089594
:101F200057FD9058440F551F59F05F3F71F047958A
:101F3000880F97FB991F61F09F3F79F0879508956F
:101F4000121613061406551FF2CF4695F1DF08C08E
:101F5000161617061806991FF1CF869571056105AB
:101F600008940895E894BB2766277727CB0197F953
:101F700008950BD0C4CFB5DF28F0BADF18F0952351
:101F800009F0A6CFABCF1124EECFCADFA0F3959F07
:101F9000D1F3950F50E0551F629FF001729FBB2750
:101FA000F00DB11D639FAA27F00DB11DAA1F649FFC
:101FB0006627B00DA11D661F829F2227B00DA11DAF
:101FC000621F739FB00DA11D621F839FA00D611D35
:101FD000221F749F3327A00D611D231F849F600D56
:101FE000211D822F762F6A2F11249F5750408AF08F
:101FF000E1F088234AF0EE0FFF1FBB1F661F771F1B
:10200000881F91505040A9F79E3F510570F060CF56
:10201000AACF5F3FECF3983EDCF386957795679502
:10202000B795F795E7959F5FC1F7FE2B880F911D38
:102030009695879597F908950E948810A59F900D11
:10204000B49F900DA49F800D911D11240895B7FF9A
:102050000C941C100E941C10821B930B0895A1E28B
:102060001A2EAA1BBB1BFD010DC0AA1FBB1FEE1F12
:10207000FF1FA217B307E407F50720F0A21BB30B5D
:10208000E40BF50B661F771F881F991F1A9469F7D9
:1020900060957095809590959B01AC01BD01CF0135
:1020A0000895052E97FB16F4009407D057FD0DD028
:1020B0000E942F1007FC09D07EF4909580957095B2
:1020C00061957F4F8F4F9F4F089550954095309564
:1020D00021953F4F4F4F5F4F08952A883988488890
:1020E0005F846E847D848C849B84AA84B984C88434
:1020F000DF80EE80FD800C811B81AA81B981CE0F2B
:10210000D11D0FB6F894DEBF0FBECDBFED0108950F
:10211000A29FB001B39FC001A39F01D0B29F700DD9
:10212000811D1124911D0895EE0FFF1F0590F4915C
:08213000E02D0994F894FFCFA3
:10213800000009062000010000000101DC86000BF8
:10214800063D0505340000DC86000B063D49052ADE
:102158000000DC86000B063D31052F000044424795
:102168003A2073656E64696E6720717565727920AF
:10217800666F72206D736720747970652000444221
:10218800473A207175657279206661696C65642CBF
:102198002072657472793D004552523A2071756516
:1021A8007279206661696C6564000000000068034C
:1021B800F50403033203160356032E0074656D708D
:1021C8005F006F7574646F6F7200666565640062A6
:1021D8006F696C65720062756666657200636F6C24
:1021E8006C6563746F7200686F74746170006F75EA
:1021F80074646F6F725F6D6178006F7574646F6F70
:10220800725F6D696E004442473A205B44435D202B
:102218005B5352433A005D205B4453543A005D20BF
:102228005B4C454E3A005D200000002110422063BF
:10223800308440A550C660E770088129914AA16B97
:10224800B18CC1ADD1CEE1EFF1311210027332522F
:1022580022B5529442F772D662399318837BB35AE7
:10226800A3BDD39CC3FFF3DEE362244334200401FF
:1022780014E664C774A44485546AA54BB528850937
:1022880095EEE5CFF5ACC58DD553367226111630CF
:1022980006D776F6669556B4465BB77AA719973887
:1022A80087DFF7FEE79DD7BCC7C448E5588668A70F
:1022B800784008611802282338CCC9EDD98EE9AFD7
:1022C800F9488969990AA92BB9F55AD44AB77A966F
:1022D8006A711A500A333A122AFDDBDCCBBFFB9E27
:1022E800EB799B588B3BBB1AABA66C877CE44CC53F
:1022F8005C222C033C600C411CAEED8FFDECCDCD77
:10230800DD2AAD0BBD688D499D977EB66ED55EF40E
:102318004E133E322E511E700E9FFFBEEFDDDFFCC6
:10232800CF1BBF3AAF599F788F8891A981CAB1EB6B
:10233800A10CD12DC14EF16FE18010A100C230E394
:10234800200450254046706760B9839893FBA3DA50
:10235800B33DC31CD37FE35EF3B1029012F322D2E4
:10236800323542145277625672EAB5CBA5A89589E0
:10237800856EF54FE52CD50DC5E234C324A0148134
:10238800046674476424540544DBA7FAB79987B8F0
:10239800975FE77EF71DC73CD7D326F2369106B084
:1023A8001657667676154634564CD96DC90EF92FF0
:1023B800E9C899E9898AB9ABA944586548067827D4
:1023C80068C018E1088238A3287DCB5CDB3FEB1E90
:1023D800FBF98BD89BBBAB9ABB754A545A376A1624
:1023E8007AF10AD01AB32A923A2EFD0FED6CDD4D20
:1023F800CDAABD8BADE89DC98D267C076C645C4574
:102408004CA23C832CE01CC10C1FEF3EFF5DCF7C2F
:10241800DF9BAFBABFD98FF89F176E367E554E74C3
:102428005E932EB23ED10EF01E4442473A207365A9
:102438007269616C2062757320696E2075736520FE
:1024480028636172726965722073656E736529000D
:102458004442473A20636F6C6C6973696F6E206FF2
:102468006E207468652073657269616C206275738B
:102478002028636F6C6C6973696F6E20646574657E
:102488006374696F6E29202D2D206572723D0000DE
:00000001FF
